:02000002D0002C
:1040000000400D0064580D00000006000C00050182
:084010000401DE0500000000C0
:0440180088540D00BB
:10401C0009480A49884208B505D0094A824202D0AB
:10402C00121A01F0E7F90748074A0021121A01F0A9
:10403C00ECF9014808BD00BF5CE30320D4570D0028
:10404C00C4E30320C4E30320F0E7032070B500F0C1
:10405C00ADFD074C074BE41AA40800251E46A542EB
:10406C0004D056F8253098470135F8E770BD00BFED
:10407C00D0570D0098570D0000F014B808B500F09B
:10408C0033F8BDE8084000F053BD00F01BBA00F057
:10409C0019BA0078B0FA80F0400970470123037018
:1040AC007047000008B500F081FC4FF4165100F089
:1040BC006BFC00F07BFC00F06EFC0028F9D00021BA
:1040CC00072000F0E7FF0121082000F0E3FF40216A
:1040DC00082000F0F0FF00F069FC0249BDE8084040
:1040EC0000F0EBBD9C540D0010B50121072001F030
:1040FC0008F8074C206000F059FC2368054A0121A0
:10410C0000F005FE4FF47A70BDE8104000F0EFBCF3
:10411C00C8E30320A2540D0000F008B908B5024B07
:10412C001B681B68019308BD4C02030008B5024BC9
:10413C001B685B68019308BD4C02030008B5024B79
:10414C001B681B69019308BD4C02030008B5024BA8
:10415C001B685B69019308BD4C02030008B5024B58
:10416C001B689B69019308BD4C02030008B5024B08
:10417C001B68DB69019308BD4C02030008B5024BB8
:10418C001B681B6A019308BD4C02030008B5024B67
:10419C001B685B6A019308BD4C02030008B5024B17
:1041AC001B681B6A019308BD2802030008B5024B6B
:1041BC001B685B6A019308BD2802030008B5024B1B
:1041CC001B689B6A019308BD2802030008B5024BCB
:1041DC001B68DB6A019308BD2802030008B5024B7B
:1041EC001B681B6B019308BD2802030008B5024B2A
:1041FC001B685B6B019308BD2802030008B5024BDA
:10420C001B681B6C019308BD2802030008B5024B08
:10421C001B681B68019308BD3C02030008B5024BE8
:10422C001B68DB68019308BD3C02030008B5024B18
:10423C001B681B69019308BD3C02030008B5024BC7
:10424C001B685B69019308BD3C02030008B5024B77
:10425C001B689B69019308BD3C02030008B5024B27
:10426C001B68DB69019308BD3C02030008B5024BD7
:10427C001B681B6A019308BD3C02030008B5024B86
:10428C001B689B6A019308BD3C02030008B5024BF6
:10429C001B685B69019308BD6402030008B5024BFF
:1042AC001B689B68019308BD4802030008B5024BCC
:1042BC001B681B69019308BD4802030008B5024B3B
:1042CC001B685B69019308BD4802030008B5024BEB
:1042DC001B685B6C019308BD4802030008B5024BD8
:1042EC001B689B6C019308BD4802030008B5024B88
:1042FC001B685B68019308BD1802030008B5024BEC
:10430C001B685B69019308BD1802030008B5024BDA
:10431C001B68DB69019308BD3002030008B5024B32
:10432C001B681B6A019308BD3002030008B5024BE1
:10433C001B681B68019308BD2C02030008B5024BD7
:10434C001B685B68019308BD2C02030008B5024B87
:10435C001B689B68019308BD2C02030008B5024B37
:10436C001B68DB68019308BD2C02030008B5024BE7
:10437C001B689B6A019308BD2C02030008B5024B15
:10438C001B68DB6C019308BD2C02030008B5024BC3
:10439C001B689B6F019308BD2C02030008B5024BF0
:1043AC001B689B68019308BD6802030008B5024BAB
:1043BC001B68DB68019308BD6802030008B5024B5B
:1043CC001B68DB6B019308BD4402030008B5024B6C
:1043DC001B685B68019308BD4002030008B5024BE3
:1043EC001B689B68019308BD4002030008B5024B93
:1043FC001B68DB68019308BD4002030008B5024B43
:10440C001B681B69019308BD4002030008B5024BF1
:10441C001B685B69019308BD4002030008B5024BA1
:10442C001B689B69019308BD4002030008B5024B51
:10443C001B68DB69019308BD4002030008B5024B01
:10444C001B681B6A019308BD4002030008B5024BB0
:10445C001B681B6B019308BD4002030008B5024B9F
:10446C001B685B6B019308BD4002030008B5024B4F
:10447C001B685B68019308BD2002030008B5024B62
:10448C001B685B69019308BD2002030008B5034B50
:10449C001B68D3F88830019308BD0000200203008C
:1044AC0008B5034B1B68D3F89430019308BD00008A
:1044BC002002030008B5024B1B681B68019308BD62
:1044CC001C02030008B5024B1B685B68019308BD16
:1044DC001C02030008B5024B1B685B6A019308BD04
:1044EC001C02030000231A464068FFF76FBF00222E
:1044FC0002214068FFF77ABF002211464068FFF79F
:10450C006DBF002211464068FFF778BF00231A46A2
:10451C0019464068FFF77ABF00231A4619464068CF
:10452C00FFF77CBF002281F001014068FFF77EBFDE
:10453C0000224068FFF78ABF002211464068FFF74F
:10454C008DBF002211464068FFF778BF2DE9F0437C
:10455C00002495B016460D46074600F087FA214612
:10456C0020220CA8009400F050FF40230C9321460D
:10457C006B460CAA3046FFF719FF0446002844D1BD
:10458C00024601216868FFF739FF02218046224666
:10459C006868FFF733FF009E81462146002E34D019
:1045AC00002932D17368022B02D00A2B09D02AE0E1
:1045BC00B8F1000F27D071693846043100F083FA46
:1045CC0020E0B9F1000F1ED07469112201A800F08F
:1045DC001CFF06238DF8143001AD04F108031834C8
:1045EC00186859682A4603C20833A3421546F7D106
:1045FC0001A906A807AD00F047FA0FCD3C1D0FC46A
:10460C002B6823700121F669C8E70098FFF7C6FEF6
:10461C00384615B0BDE8F083024B034A1A600022FD
:10462C005A607047CCE30320B0540D0000221146B1
:10463C004068FFF7E3BE002211464068FFF7FEBE5C
:10464C00002211464068FFF709BF00224068FFF7BF
:10465C00FDBE002281F001014068FFF7E7BE002398
:10466C001A4619464068FFF7D9BE00231A46194668
:10467C004068FFF7CBBE002211464068FFF7AEBE84
:10468C00002202214068FFF7B1BE00231A464068A1
:10469C00FFF79CBE024B04225A60024A1A60704714
:1046AC00D4E30320E4540D00002211464068FFF7C8
:1046BC00C5BE002211464068FFF7D0BE00224068FC
:1046CC00FFF7C4BE002281F001014068FFF7AEBEC7
:1046DC0000231A4601214068FFF7A0BE00231A46AA
:1046EC0019464068FFF792BE002211464068FFF75A
:1046FC0085BE002211464068FFF770BE00220221E1
:10470C004068FFF773BE00231A464068FFF75EBE91
:10471C0038B5054688B104684CB1A3681BB10322B7
:10472C002146204698471021204600F0F9FC2846E7
:10473C001421BDE8384000F0F3BC38BD10B103685B
:10474C005B681847704710B503680446BBB15868DE
:10475C00FFF7A4FD78B923685A7C12B95868FFF7A3
:10476C00A5FD23685868FFF7A9FD20680023236086
:10477C0028B1FFF7CDFF206808B1FFF7C9FF20462D
:10478C0010BD38B50446D0F8C40108B1FFF77FFC62
:10479C00D4F8C00108B1FFF7A1FDD4F8BC5135B174
:1047AC002846FFF7D0FF0421284600F0B9FC20680A
:1047BC0008B1FFF7C3FF204638BD000010B5044B0D
:1047CC00044640F8083BFFF7DCFF204610BD00BF55
:1047DC0018550D0038B50E4C0E4B236000250223E6
:1047EC0004F5E4706360A560C4F8C451C4F8C85102
:1047FC00FFF76CFD084BC4F8CC5184F8D051236002
:10480C002046064A0649BDE8384000F07CBC00BF93
:10481C00DCE30320B0540D0018550D00C4E3032055
:10482C00C9470D00704710B50C21044600F078FC08
:10483C00204610BD10B5054B0360044601710846B7
:10484C00FFF764FD0023A360204610BD4C550D00FE
:10485C000079FFF763BD7047F8B5064615460C4660
:10486C008F18BC4206D0336814F8011B9B68304685
:10487C009847F6E72846F8BD0022007CFFF78EBC6F
:10488C000021007CFFF792BC0021007CFFF796BC56
:10489C000021007CFFF79ABC0021007CFFF79EBC36
:1048AC0010B51421044600F03BFC204610BD00005E
:1048BC0010B50446002363604FF47A73A360044B75
:1048CC002174084623601146FFF798FC204610BD62
:1048DC005C550D000021007CFFF788BC41747047CB
:1048EC00704708B50021007CFFF738FC30EA200047
:1048FC0028BF4FF0FF3008BD08B50121007CFFF741
:10490C002DFC30EA200028BF4FF0FF3008BD08B561
:10491C00007CFFF71BFC20EAE07008BD08B5007CAA
:10492C00FFF70CFC20EAE07008BD007CFFF726BC0A
:10493C0010B51421044600F0F3FB204610BD38B529
:10494C000446007C0D46FFF701FC002801DC607C6E
:10495C0028B12946207CFFF709FC20EAE07038BD1D
:10496C0010B50446002363604FF47A73A360054BC3
:10497C00236001230846217463741146FFF7CEFBB4
:10498C00204610BD84550D000022007CFFF7CEBBE5
:10499C00007CFFF7FBBBFFF7FBBF10B514220446EE
:1049AC00002100F032FD204610BD000030B50E4D48
:1049BC0087B001A8FFF7F1FF296811F0010410D1AD
:1049CC002846FFF766FB60B101AA21460748FFF7AE
:1049DC00C7FF2846FFF762FB054A0649034800F06B
:1049EC0092FB024807B030BDB0E50320B4E50320CC
:1049FC00C4E30320ED480D00704710B518210446A0
:104A0C0000F08EFB204610BDF0B5037D062B8DB05B
:104A1C000E4600F104074FF0000402D000F1080527
:104A2C0018E00CAD394605F8304D2F232A460A20E4
:104A3C00FFF72CFC284600F019FD33680246DB68B2
:104A4C002946304698470FE024B12E21304600F01D
:104A5C0025F9044415F8011D0A22304600F037F9F7
:104A6C00BD420444F0D120460DB0F0BD10B5054B4D
:104A7C000446112240F8043B002100F0C6FC2046FD
:104A8C0010BD00BFB4550D000346074A10B543F8DE
:104A9C00042B01F1100251F8044B43F8044B9142E2
:104AAC00F9D10A781A7010BDB4550D0010B59DF8E7
:104ABC00084044EA032343EA024242EA0161042328
:104ACC004160037510BD37B50D788B784A78C9787D
:104ADC0000912946FFF7EAFF03B030BD10B583689B
:104AEC00044613B1032201469847204610BD00210D
:104AFC00FFF7C4BC08B50C4B33B1FFF757FF036885
:104B0C001B699847002809DC084B63B100F0B2F927
:104B1C0003681B699847002803DC08BDAFF30080CD
:104B2C00F2E7AFF3008008BD0000000000000000B9
:104B3C0008B5FFF7DFFFFFF7E1FB014B186008BD7D
:104B4C0038E703200248034A0349121A00F052BC0A
:104B5C0000F4032004F40320D0570D0007B5002304
:104B6C0000931A466FF07701FFF79AFC03B05DF8DB
:104B7C0004FB000007B543880A2B08D0502B09D141
:104B8C00094B1B683BB103B05DF804EB1847FFF70A
:104B9C00E5FF06E0002300931A466FF07701FFF75C
:104BAC007FFC03B05DF804FBC8E5032038B5104C5E
:104BBC00104D2368AB42104B0CBF012200221A701F
:104BCC0002D0FFF7BFFF2560FFF790FB044600F013
:104BDC0025FC0A4B13B12046AFF300800021074897
:104BEC00FFF7ECFB00210648BDE83840FFF74EBC50
:104BFC0000F403201E1C279ACCE5032000000000C3
:104C0C00814B0D0010B50446FFF768FF204610BD20
:104C1C000348044A04490023836000F074BA00BFBF
:104C2C00D0E50320C4E30320114C0D00024B1A689D
:104C3C00024B1A60704700BF5CE30320E0E50320E1
:104C4C00014B024A1A607047E4E503205C560D00E4
:104C5C00F8B506460D468F180024BD420CD03368BB
:104C6C0015F8011B9B6830469847002801DB04446B
:104C7C00F3E7002C08BF04462046F8BD70B5054686
:104C8C000C46084649B100F0F1FB2B680246214660
:104C9C002846DB68BDE87040184770BD03689B6808
:104CAC00184738B50D210546FFF7F8FF0A210446D1
:104CBC002846FFF7F3FF204438BD38B50546FFF70B
:104CCC00DDFF04462846FFF7ECFF204438BD30B525
:104CDC008BB00B4600218DF82410012A98BF0A22B4
:104CEC000DF12304B3FBF2F505FB123303F0FF03C4
:104CFC00092B94BF30333733DBB2214604F801392A
:104D0C002B46002DEED1FFF7B9FF0BB030BD0CB424
:104D1C002DE9F04387B000AF07F13804054654F88D
:104D2C00049B3C600E4623464A461421381DFFF76F
:104D3C00D1FB132805D8391D2846FFF79FFF0446E1
:104D4C0013E000F1080323F00703E846ADEB030D75
:104D5C00411C23464A4668463C60FFF7BBFB69464C
:104D6C002846FFF78BFF0446C5461EB12846FFF7C1
:104D7C0098FF044420461C37BD46BDE8F04302B002
:104D8C00704710B50446006808B1FFF7A7FA204633
:104D9C0010BD000010B5064C002320462360FFF721
:104DAC0095FA2046034A0449BDE8104000F0ABB91F
:104DBC00E8E50320C4E303208F4D0D0070474174D8
:104DCC00704708B5007CFFF759FA20EAE07008BD7F
:104DDC0008B5007CFFF72AFA20EAE07008BD08B598
:104DEC00007CFFF733FA30EA200028BF4FF0FF3089
:104DFC0008BD08B5007CFFF721FA30EA200028BF77
:104E0C004FF0FF3008BD007CFFF728BA10B5142115
:104E1C00044600F085F9204610BD70B5457C04466B
:104E2C000E4625B9007CFFF729FA002805DD31462E
:104E3C00207CBDE87040FFF7F1B9284670BD00003A
:104E4C0010B5044608461146002262604FF47A728F
:104E5C00A260054A22600122207462741A46FFF790
:104E6C00D5F9204610BD00BFD4560D00007CFFF7CD
:104E7C00FDB9000038B50C4D296811F0010411D1B1
:104E8C002846FFF706F968B1084A094B094821463C
:104E9C00FFF7D6FF2846FFF701F9074A07490548EF
:104EAC0000F031F9034838BD84E6032088E603207E
:104EBC0000E60320ECE50320C4E30320C94D0D00FC
:104ECC0010B50446006818B1FFF7FCFA0023236004
:104EDC0010BD10B50446FFF7F3FF204610BD0000CF
:104EEC0010B5094C00204FF6FF732060A080A07114
:104EFC0020816381FFF7BAFA2046044A0449BDE8D1
:104F0C00104000F000B900BF0CE70320C4E30320FD
:104F1C00DF4E0D00002211464068FFF78FBA0022C9
:104F2C0011464068FFF79ABA00224068FFF78EBA24
:104F3C00002281F001014068FFF778BA00231A467D
:104F4C0019464068FFF76ABA00231A4619464068AA
:104F5C00FFF75CBA002211464068FFF74FBA0022F7
:104F6C0011464068FFF73ABA002202214068FFF769
:104F7C003DBA00231A464068FFF728BA024B0322B9
:104F8C005A60024A1A60704718E7032004570D0054
:104F9C0070B5044614252A46094E002100F035FA56
:104FAC00258020253146A5602561284600F0BAF8F9
:104FBC0031466060284600F0B5F8E060204670BDD0
:104FCC0030570D0030B50E4D296811F0010487B033
:104FDC0013D12846FFF75DF878B101A8FFF7D8FF89
:104FEC0001AA21460748FFF763FC2846FFF756F84D
:104FFC00054A0649034800F086F8024807B030BD60
:10500C0020E7032024E70320C4E3032063480D00BA
:10501C0038B50B4D296811F001040FD12846FFF764
:10502C0038F858B121460748FFF704FC2846FFF72B
:10503C0035F8054A0549034800F065F8014838BDC4
:10504C0048E703203CE70320C4E3032031480D006C
:10505C0010B50446FFF7DCFFFFF7FAFB28B1A4F10B
:10506C000B03022B01D8002010BDFFF7ABFFFFF79D
:10507C0031FC08B1012CF6D9FFF7FCFEFFF7F6FE68
:10508C0018B1A4F10903012BEDD9232C8CBF0020FE
:10509C00012010BD232838B504460D460AD8FF2937
:1050AC0008D0FFF7D5FF28B129462046BDE8384087
:1050BC00FFF74CB938BD38B504460D46FFF7C8FFAD
:1050CC00F0B104212046FFF739F9042805D1A9B223
:1050DC002046BDE83840FFF749B902212046FFF7CA
:1050EC002DF902280CD12046FFF738F9012801D000
:1050FC00042805D129462046BDE83840FFF746B9BB
:10510C0038BDFFF73BB90B460146184600F064B9B1
:10511C00024B1868BFF35F8F704700BF4CE703204A
:10512C00FEF7B3BF00F000B810B5002814BF04465A
:10513C0001242046FFF7BEF920B9FFF7E9FF08B1BB
:10514C008047F6E710BD0000184B1A68D1075CBF0A
:10515C0001221A60164B1A68D2075CBF01221A6032
:10516C00144B1A68D0075CBF01221A60124B1A68E4
:10517C00D1075CBF01221A60104B1A68D2075CBFC2
:10518C0001221A600E4B1A68D0075CBF01221A600C
:10519C000C4B1A68D1075CBF01221A600A4B1A68C3
:1051AC00D2075CBF01221A60704700BF6CE7032076
:1051BC0068E7032064E7032060E703205CE7032033
:1051CC0058E7032054E7032050E70320244B1A68C8
:1051DC00D0075CBF01221A60224B1A68D1075CBF52
:1051EC0001221A60204B1A68D2075CBF01221A6098
:1051FC001E4B1A68D0075CBF01221A601C4B1A6840
:10520C00D1075CBF01221A601A4B1A68D2075CBF27
:10521C0001221A60184B1A68D0075CBF01221A6071
:10522C00164B1A68D1075CBF01221A60144B1A681E
:10523C00D2075CBF01221A60124B1A68D0075CBF00
:10524C0001221A60104B1A68D1075CBF01221A6048
:10525C000E4B1A68D2075CBF01221A60704700BF60
:10526C009CE7032098E7032094E7032090E70320B2
:10527C008CE7032088E7032084E7032080E70320E2
:10528C007CE7032078E7032074E7032070E7032012
:10529C00244B1A68D0075CBF01221A60224B1A6893
:1052AC00D1075CBF01221A60204B1A68D2075CBF81
:1052BC0001221A601E4B1A68D0075CBF01221A60CB
:1052CC001C4B1A68D1075CBF01221A601A4B1A6872
:1052DC00D2075CBF01221A60184B1A68D0075CBF5A
:1052EC0001221A60164B1A68D1075CBF01221A60A2
:1052FC00144B1A68D2075CBF01221A60124B1A6851
:10530C00D0075CBF01221A60104B1A68D1075CBF32
:10531C0001221A600E4B1A68D2075CBF01221A6078
:10532C00704700BFCCE70320C8E70320C4E7032085
:10533C00C0E70320BCE70320B8E70320B4E7032051
:10534C00B0E70320ACE70320A8E70320A4E7032081
:10535C00A0E70320184B1A68D1075CBF01221A6022
:10536C00164B1A68D2075CBF01221A60144B1A68DC
:10537C00D0075CBF01221A60124B1A68D1075CBFC0
:10538C0001221A60104B1A68D2075CBF01221A6006
:10539C000E4B1A68D0075CBF01221A600C4B1A68BE
:1053AC00D1075CBF01221A600A4B1A68D2075CBF96
:1053BC0001221A60704700BFECE70320E8E70320E6
:1053CC00E4E70320E0E70320DCE70320D8E7032031
:1053DC00D4E70320D0E7032010B5054C13462CB1BD
:1053EC000A4601460220AFF3008010BD204610BDD6
:1053FC000000000010B5431E0A44914204D011F87D
:10540C00014B03F8014FF8E710BD024403469342E9
:10541C0002D003F8011BFAE77047000038B5124BB5
:10542C001C68A36B0546D3B91820FFF743F843F269
:10543C000E33A06303804AF6CD33438041F234230C
:10544C0083804EF26D63C3804DF6EC6303810523BC
:10545C0043810B23838101220023C0E90423A36B26
:10546C0000221D615A6138BDC0E30320034613F8C6
:10547C00012B002AFBD1181A013870471D400D0072
:10548C0059400D0085400D0089400D0000000000C2
:10549C00426567696E00256420757300000000008A
:1054AC0000000000F1440D00FB440D0005450D000B
:1054BC000F450D0019450D0025450D0031450D001A
:1054CC003D450D0045450D004F450D0059450D005E
:1054DC00000000000000000097460D008D460D00F6
:1054EC0083460D0039460D0077460D006B460D00C6
:1054FC005F460D0057460D004D460D0043460D000E
:10550C0059450D00000000000000000013470D007D
:10551C0009470D00FF460D00F5460D00E9460D004C
:10552C00DD460D00D1460D00C9460D00BF460D00ED
:10553C00B5460D0059450D000000000000000000AC
:10554C0031480D0033480D00000000000000000041
:10555C0063480D00AD480D0085480D0065480D00F1
:10556C008D480D0095480D009D480D00A5480D0077
:10557C000000000000000000ED480D003D490D004A
:10558C004B490D005D4C0D0029490D00EF480D00F5
:10559C0005490D0037490D001B490D00E9480D0068
:1055AC000000000000000000154A0D00054A0D0027
:1055BC00074A0D005A00252B3033643A25303275DA
:1055CC000025592D256D2D25645425483A254D3A35
:1055DC002553257A0061736374696D65006261758A
:1055EC00640053657269616C0053657269616C315A
:1055FC00007479706500706172616D00636D640098
:10560C00696400686E64007374726D0066696C7412
:10561C00006C766C0061646448616E646C65720049
:10562C0072656D6F766548616E646C657200656E4F
:10563C00756D48616E646C657273004A534F4E53BE
:10564C00747265616D4C6F6748616E646C65720055
:10565C0061707000253031307520005D20002564AC
:10566C00002C200028293A2000205B00636F646521
:10567C00203D200025690064657461696C73203DD0
:10568C0020000D0A0066006C6E00666E00636F648D
:10569C00650064657461696C006E6F6E6500747290
:1056AC0061636500696E666F007761726E0065728A
:1056BC00726F720070616E696300616C6C00000047
:1056CC000000000000000000C94D0D00194E0D0037
:1056DC00274E0D005D4C0D00DD4D0D00FF4D0D00F6
:1056EC00EB4D0D00134E0D00CB4D0D00CF4D0D00AD
:1056FC0000000000000000007F4F0D00754F0D00F2
:10570C006B4F0D00614F0D00554F0D00494F0D00B3
:10571C003D4F0D00354F0D002B4F0D00214F0D004F
:10572C0059450D00000000000000000000000000C2
:10573C00000000000000000000000000000000005D
:10574C00000000000000000000000000000000004D
:10575C00000000000000000000000000000000003D
:10576C00000000000000000000000000000000002D
:10577C00000000000000000000000000000000001D
:10578C0000000000000000004300000025410D0057
:10579C0025460D00A1460D00E1470D001D4C0D00E6
:1057AC00394C0D004D4C0D00A14D0D00ED4E0D0072
:1057BC00894F0D0055510D00D9510D009D520D0012
:0457CC0061530D0018
:0457D00000000000D5
:1057D400E1550D000000000034570D0054570D0032
:1057E40074570D00000000000000000000000000DD
:1057F4000000000094570D000000000000000000AD
:105804000000000000000000000000000000000094
:105814000000000000000000000000000000000084
:105824000000000000000000000000000000000074
:085834000000000060E3032006
:10583C00FFFFFFFF00000102030405060708090A29
:10584C000B0C0D0E0F101112131415161718191A24
:08585C001B1C1D1E1F2028006B
:04586400785634122C
:04000003D000401CCD
:00000001FF
