:02000002D0002C
:1040000000400D00305B0D00000006000C000501B3
:084010000401DE0500000000C0
:04401800F8540D004B
:10401C0009480A49884208B505D0094A824202D0AB
:10402C00121A01F01FFA0748074A0021121A01F070
:10403C0024FA014808BD00BF2CE30320845A0D006C
:10404C00B0E30320B0E30320F0E7032070B500F0E9
:10405C008DFC074C074BE41AA40800251E46A5420C
:10406C0004D056F8253098470135F8E770BD00BFED
:10407C00745A0D00345A0D0000F086B808B500F0E3
:10408C00ABF8BDE8084000F033BC00F0F1BA00F02A
:10409C00EFBA0078B0FA80F0400970470123037042
:1040AC00704738B50D46044680B100F05FFD2146DF
:1040BC0000F090FB00F05AFD0A220446294600F05D
:1040CC00A6FB204600F08DFB002038BD4FF0FF30E2
:1040DC0038BD000070B5054678B1094E00242B1987
:1040EC0056F814009978DB78023443EA0121FFF783
:1040FC00D8FF0E2CF3D1002070BD4FF0FF3070BDF7
:10410C002CE3032038B50546A0B3002400F02EFDA7
:10411C001022295D00F07BFB00F028FD174900F010
:10412C0059FB052394FBF3F303EB83039C4200D070
:10413C0024B900F01BFD124900F05FFB01341C2C6C
:10414C00E4D16A1E05F11B01002312F8010F034490
:10415C008A42DBB2F9D12A7F9A4204D000F006FDE4
:10416C00084900F04AFB00F001FD054900F045FB51
:10417C00002038BD4FF0FF3038BD00BF0C550D008E
:10418C002F580D000F550D0008B500F0EFFC4FF443
:10419C00165100F0DFFC41F2883000F06BFB00F0B0
:1041AC00E5FC094900F029FB00F0E0FC074900F0B0
:1041BC0024FB074800F08BF828B100F0D7FC054928
:1041CC0000F01BFBFEE708BD22550D005D550D00F0
:1041DC00B4E303206A550D0010B51D221A491B4883
:1041EC0000F080F820B100F0C1FC194900F005FB8B
:1041FC00154C00F0BBFC174900F0FFFA2046FFF706
:10420C0081FF00F0B3FC144900F0F7FA2046FFF7E9
:10421C0061FF00F0ABFC114900F0EFFA637B217BEE
:10422C0043EA01210E4B19600E4B5869FFF739FF19
:10423C0000F09CFC0C4900F0E0FA41F28830BDE83B
:10424C00104000F017BB00BFBCE30320B4E3032015
:10425C0080550D009D550D00AE550D00C6550D0039
:10426C00B8E303202CE303202F580D0008B500F011
:10427C0073F840210248BDE8084000F01FB800BFA9
:10428C00B4E303200170704738B505460C4600F0C6
:10429C004BFF297800F083FD00F046FF03682146B0
:1042AC009B68984700F040FF00F081FD002814BF88
:1042BC006FF00100002038BD00F04EB810B5044678
:1042CC00FFF7E0FF204610BD8821FFF7DDBF10B5DA
:1042DC00044600F029FF00F02BFD2046BDE81040FD
:1042EC00FFF7F2BF70B50C46154600F01DFF1D22FE
:1042FC00402100F051FD0B2600F016FF03681B69EE
:10430C009847A84205D0013E0ED0012000F0B2FA29
:10431C00F2E72544A5420AD000F006FF03685B696A
:10432C00984704F8010BF5E76FF0010070BD002011
:10433C0070BD00F011B8000008B5024B1B689B68FB
:10434C00019308BD6802030008B5024B1B68DB68CB
:10435C00019308BD6802030008B5024B1B681B687B
:10436C00019308BD2C02030008B5024B1B685B6867
:10437C00019308BD1802030008B5024B1B685B696A
:10438C00019308BD1802030008B5024B1B689B681B
:10439C00019308BD4802030008B5024B1B681B695A
:1043AC00019308BD4802030008B5024B1B685B690A
:1043BC00019308BD4802030008B5024B1B685B6CF7
:1043CC00019308BD4802030008B5024B1B689B6CA7
:1043DC00019308BD4802030008B5024B1B685B69DA
:1043EC00019308BD6402030008B5024B1B681B68EF
:1043FC00019308BD3C02030008B5024B1B68DB6847
:10440C00019308BD3C02030008B5024B1B681B69F5
:10441C00019308BD3C02030008B5024B1B685B69A5
:10442C00019308BD3C02030008B5024B1B689B6955
:10443C00019308BD3C02030008B5024B1B68DB6905
:10444C00019308BD3C02030008B5024B1B689B6A34
:10445C00019308BD3C02030008B5024B1B68DB68E6
:10446C00019308BD2802030008B5024B1B689B6929
:10447C00019308BD2802030008B5024B1B68DB69D9
:10448C00019308BD2802030008B5024B1B681B6A88
:10449C00019308BD2802030008B5024B1B685B6A38
:1044AC00019308BD2802030008B5024B1B689B6AE8
:1044BC00019308BD2802030008B5024B1B68DB6A98
:1044CC00019308BD2802030008B5024B1B681B6B47
:1044DC00019308BD2802030008B5024B1B681B6C36
:1044EC00019308BD2802030008B5024B1B681B6D25
:1044FC00019308BD2802030008B5024B1B681B681A
:10450C00019308BD4C02030008B5024B1B685B68A5
:10451C00019308BD4C02030008B5024B1B681B69D4
:10452C00019308BD4C02030008B5024B1B685B6984
:10453C00019308BD4C02030008B5024B1B689B6934
:10454C00019308BD4C02030008B5024B1B68DB69E4
:10455C00019308BD4C02030008B5024B1B681B6A93
:10456C00019308BD4C02030008B5024B1B685B6845
:10457C00019308BD2002030008B5024B1B685B6960
:10458C00019308BD2002030008B5034B1B68D3F848
:10459C008830019308BD00002002030008B5034BCE
:1045AC001B68D3F89430019308BD0000200203006F
:1045BC0008B5024B1B685B68019308BD4002030001
:1045CC0008B5024B1B689B68019308BD40020300B1
:1045DC0008B5024B1B68DB68019308BD4002030061
:1045EC0008B5024B1B681B69019308BD4002030010
:1045FC0008B5024B1B685B69019308BD40020300C0
:10460C0008B5024B1B689B69019308BD400203006F
:10461C0008B5024B1B68DB69019308BD400203001F
:10462C0008B5024B1B681B6A019308BD40020300CE
:10463C0008B5024B1B681B6B019308BD40020300BD
:10464C0008B5024B1B685B6B019308BD400203006D
:10465C0008B5024B1B68DB6B019308BD44020300D9
:10466C0008B5024B1B681B68019308BD1C020300B4
:10467C0008B5024B1B685B68019308BD1C02030064
:10468C00002211464068FFF7CBBF0022114640685C
:10469C00FFF7D6BF00224068FFF7CABF002281F0A7
:1046AC0001014068FFF7B4BF00231A461946406861
:1046BC00FFF7A6BF00231A4619464068FFF798BFBC
:1046CC00002211464068FFF78BBF0022114640685C
:1046DC00FFF776BF002202214068FFF779BF002365
:1046EC001A464068FFF764BF024B03225A60024A25
:1046FC001A607047DCE303205C570D0010B50446CC
:10470C00006818B1FFF7B4FF0023236010BD10B58B
:10471C000446FFF7F3FF204610BD000010B5094C0E
:10472C0000204FF6FF732060A080A0712081638170
:10473C00FFF71AFF2046044A0449BDE8104000F078
:10474C0019BD00BFE4E30320B0E303201B470D00B9
:10475C0010B50446006808B1FFF736FE204610BDC0
:10476C0010B5064C002320462360FFF725FE20469B
:10477C00034A0449BDE8104000F0FCBCF0E3032000
:10478C00B0E303205D470D00F8B506460D468F18C3
:10479C000024BD420CD0336815F8011B9B683046D1
:1047AC009847002801DB0444F3E7002C08BF0446BB
:1047BC002046F8BD70B505460C46084649B100F0D8
:1047CC008DFE2B68024621462846DB68BDE870400A
:1047DC00184770BD08B5FFF7EDFF08BD03689B686F
:1047EC00184738B50D210546FFF7F8FF0A21044696
:1047FC002846FFF7F3FF204438BD38B50546FFF7D0
:10480C00D9FF04462846FFF7ECFF204438BD30B5ED
:10481C008BB00B4600218DF82410012A98BF0A2278
:10482C000DF12304B3FBF2F505FB123303F0FF0388
:10483C00092B94BF30333733DBB2214604F80139EE
:10484C002B46002DEED1FFF7B5FF0BB030BD0000AD
:10485C00014B024A1A607047F4E30320FB570D002A
:10486C00024B1A68024B1A60704700BF48E30320E2
:10487C00F8E303200021FFF77FBE10B583680446E0
:10488C0013B1032201469847204610BD10B50446CB
:10489C00FFF7F3FF204610BD0348044A04490023E8
:1048AC00836000F067BC00BFFCE30320B0E303208F
:1048BC0099480D0008B50C4B33B100F057F903685B
:1048CC001B699847002809DC084B63B100F0CCF950
:1048DC0003681B699847002803DC08BDAFF3008010
:1048EC00F2E7AFF3008008BD0000000000000000FC
:1048FC0008B5FFF7DFFFFFF73FFD014B186008BD60
:10490C0030E703200248034A0349121A00F0AABDFB
:10491C0000F4032004F40320805A0D0007B5002393
:10492C0000931A466FF07701FFF738FE03B05DF87D
:10493C0004FB000007B543880A2B08D0502B09D183
:10494C00094B1B683BB103B05DF804EB1847FFF74C
:10495C00E5FF06E0002300931A466FF07701FFF79E
:10496C001DFE03B05DF804FB0CE4032038B5104CBD
:10497C00104D2368AB42104B0CBF012200221A7061
:10498C0002D0FFF7BFFF2560FFF7EEFC044600F0F6
:10499C007DFD0A4B13B12046AFF300800021074880
:1049AC00FFF756FE00210648BDE83840FFF7ECBD86
:1049BC0000F403201E1C279A10E4032000000000C2
:1049CC0041490D00704710B51821044600F0E0FB7A
:1049DC00204610BDF0B5037D062B8DB00E4600F1C0
:1049EC0004074FF0000402D000F1080518E00CADEC
:1049FC00394605F8304D2F232A460A20FFF7ECFCE8
:104A0C00284600F06BFD33680246DB6829463046C9
:104A1C0098470FE024B12E213046FFF7DFFE044407
:104A2C0015F8011D0A223046FFF7F1FEBD42044481
:104A3C00F0D120460DB0F0BD10B5054B0446112247
:104A4C0040F8043B002100F018FD204610BD00BFCB
:104A5C009C580D000346074A10B543F8042B01F18E
:104A6C00100251F8044B43F8044B9142F9D10A78E7
:104A7C001A7010BD9C580D0010B59DF8084044EA02
:104A8C00032343EA024242EA0161042341600375B5
:104A9C0010BD37B50D788B784A78C97800912946C6
:104AAC00FFF7EAFF03B030BD41747047704708B59B
:104ABC000021007CFFF740FD30EA200028BF4FF0BA
:104ACC00FF3008BD08B50121007CFFF735FD30EA49
:104ADC00200028BF4FF0FF3008BD08B5007CFFF761
:104AEC0023FD20EAE07008BD08B5007CFFF714FD3B
:104AFC0020EAE07008BD007CFFF72EBD10B5142134
:104B0C00044600F045FB204610BD38B50446007C39
:104B1C000D46FFF709FD002801DC607C28B1294611
:104B2C00207CFFF711FD20EAE07038BD10B504467B
:104B3C00002363604FF47A73A360054B2360012359
:104B4C000846217463741146FFF7D6FC204610BD4D
:104B5C00B0580D000022007CFFF7D6BC10B5142213
:104B6C000446002100F089FC204610BD30B50E4DE6
:104B7C0087B001A8FFF7F2FF296811F0010410D1EA
:104B8C002846FFF786FA60B101AA21460748FFF7CD
:104B9C00CDFF2846FFF782FA054A0649034800F084
:104BAC00E9FA024807B030BD14E4032018E40320EE
:104BBC00B0E30320B94A0D0070474174704708B543
:104BCC00007CFFF741FC20EAE07008BD08B5007CD2
:104BDC00FFF71AFC20EAE07008BD08B5007CFFF76F
:104BEC0023FC30EA200028BF4FF0FF3008BD08B589
:104BFC00007CFFF711FC30EA200028BF4FF0FF309B
:104C0C0008BD007CFFF718BC10B51421044600F059
:104C1C00BFFA204610BD70B5457C04460E4625B93A
:104C2C00007CFFF711FC002805DD3146207CBDE837
:104C3C007040FFF7E1BB284670BD000010B504467C
:104C4C0008461146002262604FF47A72A260054A4F
:104C5C0022600122207462741A46FFF7C5FB2046BD
:104C6C0010BD00BFE0580D0038B50C4D296811F08F
:104C7C00010411D12846FFF70CFA68B1084A094B18
:104C8C0009482146FFF7DAFF2846FFF707FA074ADB
:104C9C000749054800F06EFA034838BDC4E4032008
:104CAC00C8E4032040E403202CE40320B0E30320F9
:104CBC00C54B0D007047F8B5064615460C468F18C7
:104CCC00BC4206D0336814F8011B9B6830469847E9
:104CDC00F6E72846F8BD0022007CFFF7D5BB002183
:104CEC00007CFFF7D9BB0021007CFFF7DDBB002166
:104CFC00007CFFF7E1BB0021007CFFF7E5BB10B5A2
:104D0C001421044600F044FA204610BD10B50446A8
:104D1C00002363604FF47A73A360044B217408463C
:104D2C0023601146FFF7D8FB204610BD10590D002B
:104D3C0000231A461946007CFFF78EBB70B50C4653
:104D4C0086B0142506462A46002101A800F095FBE2
:104D5C0023788DF8083063680393E368049300228A
:104D6C00237A307CADF8045001A90593FFF7BCFB06
:104D7C0006B070BD1FB500338DF800104FF0640104
:104D8C00039118BF0123694601928DF80830FFF793
:104D9C00D5FF05B05DF804FB0123FFF7EBBF002244
:104DAC00007CFFF761BB0022007CFFF765BB012193
:104DBC00FFF7F9BF002211464068FFF731BC002213
:104DCC0011464068FFF73CBC00224068FFF730BC3E
:104DDC00002281F001014068FFF71ABC00231A463B
:104DEC0001214068FFF70CBC00231A4619464068A5
:104DFC00FFF7FEBB002211464068FFF7F1BB002213
:104E0C0011464068FFF7DCBB002202214068FFF727
:104E1C00DFBB00231A464068FFF7CABB38B505460E
:104E2C0088B104684CB1A3681BB10322214620460B
:104E3C0098471021204600F0ABF928461421BDE814
:104E4C00384000F0A5B938BD10B103685B6818474D
:104E5C00704710B503680446BBB15868FFF794FA65
:104E6C0078B923685A7C12B95868FFF795FA236809
:104E7C005868FFF799FA20680023236028B1FFF7E0
:104E8C00CDFF206808B1FFF7C9FF204610BD38B52B
:104E9C000446D0F8C40108B1FFF7F9F8D4F8C00102
:104EAC0008B1FFF791FAD4F8BC5135B12846FFF799
:104EBC00D0FF0421284600F06BF9206808B1FFF7F9
:104ECC00C3FF204638BD000010B5044B044640F823
:104EDC00083BFFF7DCFF204610BD00BF38590D0022
:104EEC0038B50E4C0E4B23600025022304F5E470FC
:104EFC006360A560C4F8C451C4F8C851FFF75CFAEC
:104F0C00084BC4F8CC5184F8D05123602046064A93
:104F1C000649BDE8384000F02DB900BF4CE5032030
:104F2C00A0590D0038590D00B0E30320D54E0D00EB
:104F3C00002211464068FFF753BB0022114640681F
:104F4C00FFF76EBB002211464068FFF779BB0022C9
:104F5C004068FFF76DBB002281F001014068FFF74C
:104F6C0057BB00231A4619464068FFF749BB00237C
:104F7C001A4619464068FFF73BBB002211464068B1
:104F8C00FFF71EBB002202214068FFF721BB002364
:104F9C001A464068FFF70CBB024B04225A60024AC7
:104FAC001A60704720E703206C590D0000231A4645
:104FBC004068FFF7FDBA002202214068FFF708BBEA
:104FCC00002211464068FFF7FBBA002211464068E8
:104FDC00FFF706BB00231A4619464068FFF708BBCB
:104FEC0000231A4619464068FFF70ABB002281F0DD
:104FFC0001014068FFF70CBB00224068FFF718BBAB
:10500C00002211464068FFF71BBB00221146406886
:10501C00FFF706BB2DE9F043002495B016460D466C
:10502C000746FFF709FD214620220CA8009400F04A
:10503C0024FA40230C9321466B460CAA3046FFF70A
:10504C0083F90446002844D1024601216868FFF721
:10505C00C7FA0221804622466868FFF7C1FA009E13
:10506C0081462146002E34D0002932D17368022BA0
:10507C0002D00A2B09D02AE0B8F1000F27D07169B1
:10508C0038460431FFF705FD20E0B9F1000F1ED0C2
:10509C007469112201A800F0F0F906238DF8143080
:1050AC0001AD04F108031834186859682A4603C284
:1050BC000833A3421546F7D101A906A807ADFFF79F
:1050CC00C9FC0FCD3C1D0FC42B6823700121F66960
:1050DC00C8E70098FFF730F9384615B0BDE8F08303
:1050EC00024B034A1A6000225A60704728E70320DB
:1050FC00A0590D0070B5044614252A46094E00210E
:10510C0000F0BBF9258020253146A5602561284695
:10511C0000F040F831466060284600F03BF8E06053
:10512C00204670BDCC590D0030B50E4D296811F0DC
:10513C00010487B013D12846FEF7ABFF78B101A864
:10514C00FFF7D8FF01AA21460748FFF7DFFD2846E5
:10515C00FEF7A4FF054A0649034800F00BF8024885
:10516C0007B030BD34E7032038E70320B0E3032059
:10517C00C14C0D000B460146184600F065B9000005
:10518C00024B1868BFF35F8F704700BF4CE70320DA
:10519C00FEF77BBF00F000B810B5002814BF044622
:1051AC0001242046FFF75CFA20B9FFF7E9FF08B1AC
:1051BC008047F6E710BD0000184B1A68D1075CBF9A
:1051CC0001221A60164B1A68D2075CBF01221A60C2
:1051DC00144B1A68D0075CBF01221A60124B1A6874
:1051EC00D1075CBF01221A60104B1A68D2075CBF52
:1051FC0001221A600E4B1A68D0075CBF01221A609C
:10520C000C4B1A68D1075CBF01221A600A4B1A6852
:10521C00D2075CBF01221A60704700BF6CE7032005
:10522C0068E7032064E7032060E703205CE70320C2
:10523C0058E7032054E7032050E70320244B1A6857
:10524C00D0075CBF01221A60224B1A68D1075CBFE1
:10525C0001221A60204B1A68D2075CBF01221A6027
:10526C001E4B1A68D0075CBF01221A601C4B1A68CF
:10527C00D1075CBF01221A601A4B1A68D2075CBFB7
:10528C0001221A60184B1A68D0075CBF01221A6001
:10529C00164B1A68D1075CBF01221A60144B1A68AE
:1052AC00D2075CBF01221A60124B1A68D0075CBF90
:1052BC0001221A60104B1A68D1075CBF01221A60D8
:1052CC000E4B1A68D2075CBF01221A60704700BFF0
:1052DC009CE7032098E7032094E7032090E7032042
:1052EC008CE7032088E7032084E7032080E7032072
:1052FC007CE7032078E7032074E7032070E70320A2
:10530C00244B1A68D0075CBF01221A60224B1A6822
:10531C00D1075CBF01221A60204B1A68D2075CBF10
:10532C0001221A601E4B1A68D0075CBF01221A605A
:10533C001C4B1A68D1075CBF01221A601A4B1A6801
:10534C00D2075CBF01221A60184B1A68D0075CBFE9
:10535C0001221A60164B1A68D1075CBF01221A6031
:10536C00144B1A68D2075CBF01221A60124B1A68E0
:10537C00D0075CBF01221A60104B1A68D1075CBFC2
:10538C0001221A600E4B1A68D2075CBF01221A6008
:10539C00704700BFCCE70320C8E70320C4E7032015
:1053AC00C0E70320BCE70320B8E70320B4E70320E1
:1053BC00B0E70320ACE70320A8E70320A4E7032011
:1053CC00A0E70320184B1A68D1075CBF01221A60B2
:1053DC00164B1A68D2075CBF01221A60144B1A686C
:1053EC00D0075CBF01221A60124B1A68D1075CBF50
:1053FC0001221A60104B1A68D2075CBF01221A6096
:10540C000E4B1A68D0075CBF01221A600C4B1A684D
:10541C00D1075CBF01221A600A4B1A68D2075CBF25
:10542C0001221A60704700BFECE70320E8E7032075
:10543C00E4E70320E0E70320DCE70320D8E70320C0
:10544C00D4E70320D0E7032010B5054C13462CB14C
:10545C000A4601460220AFF3008010BD204610BD65
:10546C000000000010B5431E0A44914204D011F80C
:10547C00014B03F8014FF8E710BD02440346934279
:10548C0002D003F8011BFAE77047000038B5124B45
:10549C001C68A36B0546D3B91820FFF7E1F843F25B
:1054AC000E33A06303804AF6CD33438041F234239C
:1054BC0083804EF26D63C3804DF6EC63038105234C
:1054CC0043810B23838101220023C0E90423A36BB6
:1054DC0000221D615A6138BDACE30320034613F86A
:1054EC00012B002AFBD1181A013870471D400D0002
:1054FC0059400D0085400D0089400D000000000052
:10550C0020200077726F6E6720636865636B53753C
:10551C006D21212121002D2D2D2D2D2D2D2D2D2DCC
:10552C002D2D2D2D2D2D2D2D2D2D2D2D2D2D2D2D9F
:10553C002D2D2D2D2D2D2D2D2D2D2D2D2D2D2D2D8F
:10554C002D2D2D2D2D2D2D2D2D2D2D2D2D2D2D2D7F
:10555C000053657269616C20737461727400484DFC
:10556C003333305820696E6974206661696C6564E8
:10557C0021212100484D333330582072656164205D
:10558C00726573756C74206661696C656421212188
:10559C00005374617274696E6720446973706C6136
:1055AC0079005072696E74696E6720436F6E636523
:1055BC006E74726174696F6E7300504D322E3520AB
:1055CC00446174610073656E736F72206E756D3A11
:1055DC002000504D312E3020636F6E63656E7472F7
:1055EC006174696F6E2843463D312C5374616E644F
:1055FC0061726420706172746963756C617465208A
:10560C006D61747465722C756E69743A75672F6D63
:10561C0033293A2000504D322E3520636F6E63656E
:10562C006E74726174696F6E2843463D312C5374ED
:10563C00616E6461726420706172746963756C610F
:10564C007465206D61747465722C756E69743A752D
:10565C00672F6D33293A2000504D313020636F6E27
:10566C0063656E74726174696F6E2843463D312CAC
:10567C005374616E646172642070617274696375D5
:10568C006C617465206D61747465722C756E6974CF
:10569C003A75672F6D33293A2000504D312E30204A
:1056AC00636F6E63656E74726174696F6E2841749A
:1056BC006D6F7370686572696320656E7669726F61
:1056CC006E6D656E742C756E69743A75672F6D33DB
:1056DC00293A2000504D322E3520636F6E63656E73
:1056EC0074726174696F6E2841746D6F7370686544
:1056FC0072696320656E7669726F6E6D656E742C5F
:10570C00756E69743A75672F6D33293A2000504DC8
:10571C00313020636F6E63656E74726174696F6E85
:10572C002841746D6F7370686572696320656E765D
:10573C0069726F6E6D656E742C756E69743A7567EF
:10574C002F6D33293A2000000000000000000000FB
:10575C00EB460D00E1460D00D7460D00CD460D0081
:10576C00C1460D00B5460D00A9460D00A1460D0021
:10577C0097460D008D460D0021500D006261756439
:10578C000053657269616C0053657269616C31001C
:10579C007479706500706172616D00636D6400698D
:1057AC006400686E64007374726D0066696C7400DA
:1057BC006C766C0061646448616E646C6572007236
:1057CC00656D6F766548616E646C657200656E75AB
:1057DC006D48616E646C657273004A534F4E53741E
:1057EC007265616D4C6F6748616E646C65720061C7
:1057FC00707000253031307520005D20002564006C
:10580C002C200028293A2000205B00636F6465205F
:10581C003D200025690064657461696C73203D202E
:10582C00000D0A0066006C6E00666E00636F6465A6
:10583C000064657461696C006E6F6E6500747261F2
:10584C00636500696E666F007761726E00657272D7
:10585C006F720070616E696300616C6C005A002598
:10586C002B3033643A253032750025592D256D2D9A
:10587C0025645425483A254D3A2553257A00617301
:10588C006374696D650000000000000000000000FA
:10589C00E1490D00D1490D00D3490D000000000075
:1058AC0000000000B94A0D00094B0D00174B0D000C
:1058BC0095470D00F54A0D00BB4A0D00D14A0D006D
:1058CC00034B0D00E74A0D00B54A0D000000000027
:1058DC0000000000C54B0D00154C0D00234C0D00B5
:1058EC0095470D00D94B0D00FB4B0D00E74B0D0000
:1058FC000F4C0D00C74B0D00CB4B0D0000000000F2
:10590C0000000000C14C0D000B4D0D00E34C0D00D0
:10591C00C34C0D00EB4C0D00F34C0D00FB4C0D007B
:10592C00034D0D0000000000000000001F4E0D0094
:10593C00154E0D000B4E0D00014E0D00F54D0D00DA
:10594C00E94D0D00DD4D0D00D54D0D00CB4D0D007D
:10595C00C14D0D0021500D000000000000000000A2
:10596C009B4F0D00914F0D00874F0D003D4F0D00CB
:10597C007B4F0D006F4F0D00634F0D005B4F0D0003
:10598C00514F0D00474F0D0021500D00000000003D
:10599C0000000000B94F0D00C34F0D00CD4F0D009E
:1059AC00D74F0D00E14F0D00ED4F0D00F94F0D00DD
:1059BC0005500D000D500D0017500D0021500D001D
:1059CC0000000000000000000000000000000000CB
:1059DC0000000000000000000000000000000000BB
:1059EC0000000000000000000000000000000000AB
:1059FC00000000000000000000000000000000009B
:105A0C00000000000000000000000000000000008A
:105A1C00000000000000000000000000000000007A
:105A2C00000000004300000079420D00C5420D004B
:105A3C003F430D00F5460D0029470D006D470D0045
:105A4C005D480D006D480D00A5480D00ED4E0D0094
:105A5C00A54F0D00ED500D00C5510D0049520D0024
:105A6C000D530D00D1530D0000000000000000008C
:045A7C000000000026
:045A80000000000022
:105A8400D1550D00DE550D0021560D0064560D0054
:105A9400A6560D00E0560D001A570D008A580D0049
:105AA40000000000D0590D00F0590D00105A0D00EF
:105AB40000000000000000000000000000000000E2
:105AC400305A0D000000000000000000000000003B
:105AD40000000000000000000000000000000000C2
:105AE40000000000000000000000000000000000B2
:105AF40000000000000000000000000000000000A2
:045B04004CE303204B
:105B0800FFFFFFFF00000102030405060708090A5A
:105B18000B0C0D0E0F101112131415161718191A55
:085B28001B1C1D1E1F2028009C
:045B3000785634125D
:04000003D000401CCD
:00000001FF
